:020000040000FA
:100000006802001069010000710100007301000026
:100010007501000077010000790100000000000078
:100020000000000000000000000000007B01000054
:100030007D010000000000007F0100008101000040
:1000400083010000830100008301000083010000A0
:100050008301000083010000830100008301000090
:100060008301000083010000830100008301000080
:100070008301000083010000830100008301000070
:100080008301000083010000830100008301000060
:100090008301000083010000830100008301000050
:1000A0008301000083010000830100008301000040
:1000B0008301000083010000830100008301000030
:1000C00083010000830100008301000000F002F8BA
:1000D00000F03AF80AA090E8000C82448344AAF1A8
:1000E0000107DA4501D100F02FF8AFF2090EBAE8A6
:1000F0000F0013F0010F18BFFB1A43F0010318475C
:10010000C0010000E0010000103A24BF78C878C1A7
:10011000FAD8520724BF30C830C144BF04680C600D
:10012000704700000023002400250026103A28BF55
:1001300078C1FBD8520728BF30C148BF0B60704759
:100140001FB51FBD10B510BD00F02FF81146FFF709
:10015000F7FF00F083F800F04DF803B4FFF7F2FF6B
:1001600003BC00F055F800000948804709480047E3
:10017000FEE7FEE7FEE7FEE7FEE7FEE7FEE7FEE757
:10018000FEE7FEE704480549034A054B70470000B7
:1001900001030000CD00000068000010680200109C
:1001A00068000010704770477047754600F02CF8E3
:1001B000AE4605006946534620F00700854618B054
:1001C00020B5FFF7DFFFBDE820404FF000064FF0FD
:1001D00000074FF000084FF0000B21F00701AC467C
:1001E000ACE8C009ACE8C009ACE8C009ACE8C0099B
:1001F0008D46704710B50446AFF300802046BDE839
:100200001040FFF7AABF000000487047040000102C
:1002100001491820ABBEFEE726000200704700002F
:100220000648006A40F0005004490862044800682B
:1002300040F01000024908607047000000C009202B
:1002400000C002400448007D00F02000202801D1B9
:10025000012070470020FCE700C0004000F050F88B
:10026000FFF7DEFF00F0ECF84FF4165000F012F943
:1002700020E011480078012807D10F4908700F4885
:10028000806B40F000500D4988630B4820300078A7
:10029000032805D10948C06B40F000500749C863E6
:1002A000054B20331A78044B93F8241013F8280FC9
:1002B00000F024F9DDE700000040024000C0092002
:1002C000CC05000000000010040000000801000040
:1002D000D0050000040000106402000024010000AA
:1002E000000000000000000000000000000000000E
:1002F000000000000000000000000000FFFFFFFF02
:1003000020204B4908604B48D0F8A00100F02000A5
:1003100030B100BF4648006800F040000028F9D026
:10032000032043499C39086000204249C1F8A801D4
:100330003F490C31086001203D49943908603E482E
:100340003C4984310860AA203A498C310860552024
:1003500008600120374980310860AA2035498C3176
:10036000086055203349C1F88C0000BF31488830FF
:10037000006800F080600028F8D003202D4980310B
:100380000860AA202B49C1F88C00552029498C31DE
:10039000086000BF27488830006800F04070B0F166
:1003A000407FF7D123202349A4310860AA202149A6
:1003B000C1F8AC0055201F49AC31086001201D492F
:1003C000A0310860AA201B49AC31086055201949AA
:1003D000C1F8AC0000BF1748A830006800F4806086
:1003E0000028F8D003201349A0310860AA20114941
:1003F000C1F8AC0055200F49AC31086000BF0D4872
:10040000A830006800F44070B0F5407FF7D10B4889
:100410000849C431086000200649C1F8C8010846EF
:10042000006820F4704040F480400860704700008D
:10043000A0C10F4000C00F4063000500DE87280404
:100440000020124908720873FF20087410480068E1
:1004500040F400700E49C439C1F8C40012200B49A1
:1004600008720120087302200849603108701120C9
:10047000064908721E200549203108700A20091D0E
:1004800008700220014981F82800704700400240AE
:10049000C4C00F4030B502460024154D2C72832491
:1004A0002C73144C2468C4F3811333B1012B08D08E
:1004B000102B09D0112B0FD10AE00F4C2468A00893
:1004C0000AE00D4C206807E00B4C2468600803E04C
:1004D000094C2468E00800BF00BF1401B0FBF4F130
:1004E000034D29700C0A2C7103242C7330BD0000BD
:1004F00000C00040A8C10F400000001070B50446C5
:100500000D46164600BFFFF79DFE0028FBD00A20CF
:1005100094FBF0F030302C49087000BFFFF792FEDA
:100520000028FBD00A2094FBF0F100FB1140303092
:100530002549087000BFFFF785FE0028FBD03A2050
:100540002149087000BFFFF77DFE0028FBD00A207C
:1005500095FBF0F030301C49087000BFFFF772FEC9
:100560000028FBD00A2095FBF0F100FB1150303041
:100570001549087000BFFFF765FE0028FBD03A2040
:100580001149087000BFFFF75DFE0028FBD00A206C
:1005900096FBF0F030300C49087000BFFFF752FEB8
:1005A0000028FBD00A2096FBF0F100FB11603030F0
:1005B0000549087000BFFFF745FE0028FBD00D205D
:1005C0000149087070BD000000C0004000E1F50561
:04000005000001698D
:00000001FF
